{
  "_format": "hh-sol-artifact-1",
  "contractName": "DAOFacet",
  "sourceName": "contracts/facets/DAOFacet.sol",
  "abi": [
    {
      "inputs": [
        {
          "internalType": "string",
          "name": "description",
          "type": "string"
        }
      ],
      "name": "addProposal",
      "outputs": [
        {
          "internalType": "uint256",
          "name": "",
          "type": "uint256"
        }
      ],
      "stateMutability": "nonpayable",
      "type": "function"
    },
    {
      "inputs": [
        {
          "internalType": "uint256",
          "name": "proposalId",
          "type": "uint256"
        }
      ],
      "name": "executeProposal",
      "outputs": [],
      "stateMutability": "nonpayable",
      "type": "function"
    },
    {
      "inputs": [
        {
          "internalType": "uint256",
          "name": "proposalId",
          "type": "uint256"
        }
      ],
      "name": "vote",
      "outputs": [],
      "stateMutability": "nonpayable",
      "type": "function"
    }
  ],
  "bytecode": "0x608060405234801561001057600080fd5b50610981806100206000396000f3fe608060405234801561001057600080fd5b50600436106100415760003560e01c80630121b93f146100465780630d61b5191461005b5780632fdae3c51461006e575b600080fd5b6100596100543660046105d4565b610093565b005b6100596100693660046105d4565b61026c565b61008161007c366004610603565b61048f565b60405190815260200160405180910390f35b3360009081527f764d96a25cbc34f4b6b0dd01ec84ec342c7ee31fdf93289e5c8a1640f4b0b48860205260409020546100e75760405162461bcd60e51b81526004016100de906106b4565b60405180910390fd5b7f1445fe10959e08bbcaa491305744ba0e65a217beb9225f2c33f489c33693856d805460009082908490811061011f5761011f61070b565b60009182526020909120600260039092020181015460ff1690811115610147576101476106f5565b146101645760405162461bcd60e51b81526004016100de90610721565b6000828152600182016020908152604080832033845290915290205460ff16156101d05760405162461bcd60e51b815260206004820152601f60248201527f53696d706c6544414f3a206d656d62657220616c726561647920766f7465640060448201526064016100de565b6000828152600182810160209081526040808420338552909152909120805460ff19169091179055805481908390811061020c5761020c61070b565b60009182526020822060016003909202010180549161022a83610763565b9091555050604080518381523360208201527f030b0f8dcd86a031eddb071f91882edeac8173663ba775713b677b42b51be44b91015b60405180910390a15050565b3360009081527f764d96a25cbc34f4b6b0dd01ec84ec342c7ee31fdf93289e5c8a1640f4b0b48860205260409020546102b75760405162461bcd60e51b81526004016100de906106b4565b7f1445fe10959e08bbcaa491305744ba0e65a217beb9225f2c33f489c33693856d80546000908290849081106102ef576102ef61070b565b60009182526020909120600260039092020181015460ff1690811115610317576103176106f5565b146103345760405162461bcd60e51b81526004016100de90610721565b7f764d96a25cbc34f4b6b0dd01ec84ec342c7ee31fdf93289e5c8a1640f4b0b486546103629060029061078a565b8160000183815481106103775761037761070b565b906000526020600020906003020160010154116103e15760405162461bcd60e51b815260206004820152602260248201527f53696d706c6544414f3a2070726f706f73616c206661696c656420746f207061604482015261737360f01b60648201526084016100de565b60028160000183815481106103f8576103f861070b565b906000526020600020906003020160020160006101000a81548160ff0219169083600281111561042a5761042a6106f5565b02179055507ff758fc91e01b00ea6b4a6138756f7f28e021f9bf21db6dbf8c36c88eb737257a828260000184815481106104665761046661070b565b906000526020600020906003020160010154604051610260929190918252602082015260400190565b3360009081527f764d96a25cbc34f4b6b0dd01ec84ec342c7ee31fdf93289e5c8a1640f4b0b48860205260408120546104da5760405162461bcd60e51b81526004016100de906106b4565b7f1445fe10959e08bbcaa491305744ba0e65a217beb9225f2c33f489c33693856d805460408051606081018252858152600060208201819052918101829052600183018455908390528051600383027ffd2066cd134de3027e953e7bba73381fbcca5bec724c2f44b5491132ad3b5792019081906105589082610835565b506020820151816001015560408201518160020160006101000a81548160ff0219169083600281111561058d5761058d6106f5565b021790555050507ff970aa486598017b8116c2beb18c50d4584ecbc3c688817f59b26796725f31bf81856040516105c59291906108f5565b60405180910390a19392505050565b6000602082840312156105e657600080fd5b5035919050565b634e487b7160e01b600052604160045260246000fd5b60006020828403121561061557600080fd5b813567ffffffffffffffff8082111561062d57600080fd5b818401915084601f83011261064157600080fd5b813581811115610653576106536105ed565b604051601f8201601f19908116603f0116810190838211818310171561067b5761067b6105ed565b8160405282815287602084870101111561069457600080fd5b826020860160208301376000928101602001929092525095945050505050565b60208082526021908201527f53696d706c6544414f3a2063616c6c6572206973206e6f742061206d656d62656040820152603960f91b606082015260800190565b634e487b7160e01b600052602160045260246000fd5b634e487b7160e01b600052603260045260246000fd5b60208082526022908201527f53696d706c6544414f3a2070726f706f73616c206e6f74206f6e2070656e64696040820152616e6760f01b606082015260800190565b60006001820161078357634e487b7160e01b600052601160045260246000fd5b5060010190565b6000826107a757634e487b7160e01b600052601260045260246000fd5b500490565b600181811c908216806107c057607f821691505b6020821081036107e057634e487b7160e01b600052602260045260246000fd5b50919050565b601f82111561083057600081815260208120601f850160051c8101602086101561080d5750805b601f850160051c820191505b8181101561082c57828155600101610819565b5050505b505050565b815167ffffffffffffffff81111561084f5761084f6105ed565b6108638161085d84546107ac565b846107e6565b602080601f83116001811461089857600084156108805750858301515b600019600386901b1c1916600185901b17855561082c565b600085815260208120601f198616915b828110156108c7578886015182559484019460019091019084016108a8565b50858210156108e55787850151600019600388901b60f8161c191681555b5050505050600190811b01905550565b82815260006020604081840152835180604085015260005b818110156109295785810183015185820160600152820161090d565b506000606082860101526060601f19601f83011685010192505050939250505056fea2646970667358221220ab402361f452cf2fba7586b4cc3eee246d37c7ee4cebe86c9106d893a58bfa6264736f6c63430008110033",
  "linkReferences": {},
  "deployedLinkReferences": {}
}